:100000000C94E1060C9425070C9425070C94250705
:100010000C9425070C9425070C9425070C942507B0
:100020000C9425070C9425070C94442B0C94162C47
:100030000C94C2210C9425070C9425070C942507D9
:100040000C9425070C9425070C9425070C94250780
:100050000C9425070C9429220C9425070C94250751
:100060000C9425070C9425070C9425070C94250760
:100070000C9425070C9425070C9425070C94250750
:100080000C9425070C9425070C9425070C94250740
:100090000C9425070C9425070C9425070C94250730
:1000A0000C9425070C9425070C9425073C0746075C
:1000B00050075A0763076D07780738083E0842085B
:1000C000450849084D08510855085A085E08620855
:1000D000660869086D087108750879087E08951723
:1000E0009517CF17CF170E183018C619C6197618DE
:1000F000C6191D191D1994199B19C619C1192A1958
:100100002A192A192A192A192A192A192A192A19D7
:100110002A192A192A192A192A192A192A193C19B5
:100120004C1953195A1964195A1A5A1A6D1A6D1A18
:10013000631A6D1A6D1A6D1A5A1A5A1A691A6D1ABB
:100140006D1A691A7B2CA22C902DA22C902DEA2CD2
:100150000D2D902D632D722D07634236B79BD8A7C6
:100160001A39685618AEBAAB558C1D3CB7CC5763DC
:10017000BD6DEDFD753EF6177231BF000000803F8A
:1001800005A84CCDB2D44EB93836A9020C50B9915D
:100190008688083CA6AAAA2ABE000000803F00F07C
:1001A00001F002F003F004F005F006F0155C1E000B
:1001B0001F0020002100220023002400250026002B
:1001C00027002D002E00310035002B000000140008
:1001D0001A000800150017001C0018000C0012007F
:1001E00013002F0030002A00E00000000400160079
:1001F000070009000A000B000D000E000F0033007D
:10020000340028000000E10000001D001B00060073
:1002100019000500110010003600370038000000FA
:10022000E50001510000E3000000E20000000000D2
:100230002C00000000000000E700E60000000000C5
:100240000000005C3A003B003C003D003E003F00E7
:1002500040004100420043004400450049004C007A
:1002600039000000BA5CBB5CBD5CBE5CBF5CC05CBE
:10027000C15CC25C4700480052000100005CE00025
:100280000000AA00A900A8000100010055005400C8
:100290004A004B0050004F0001000000E100010047
:1002A00001000100B55CB75CB65C570056004D001C
:1002B0004E0051000000010001000000010000009C
:1002C000010000000000010000000000000001002B
:1002D0000100000000000000010001300230033086
:1002E0000430053006300730083009300A300B3052
:1002F0000C300100010001000000010001000100BC
:1003000001000100010001000100010001000100E5
:1003100001000100010000000100010001000100D6
:1003200001000100010001000100010001000100C5
:1003300000000100010001000100010001000100B6
:1003400001000100010001000100000001000100A6
:10035000000001000000010000000000010000009A
:10036000000000000100010000000000000001008A
:100370000100010001000100010001000100010075
:100380000100010001000100010001000100000066
:100390000100010001000100010001000100010055
:1003A0000100010001000100010001000000010046
:1003B0000100010001000100010001000100010035
:1003C0000100010001000000010001000100010026
:1003D0000100010001000100010001000100010015
:1003E0000000010001000000010000000100000009
:1003F00000000100000000000000010001000000FA
:1004000000000000010001000100010001000100E6
:1004100001000100010001000100010001000100D4
:1004200001000100000001000100010001000100C5
:1004300001000100010001000100010001000100B4
:1004400001000000010001000100010001000100A5
:100450000100010001000100010001000000010095
:100460000100010001000100010001000100010084
:100470000100010001000000010001000000010076
:10048000000001000000000001000000000000006A
:100490000100010000000000000001000100010057
:1004A0000100010001000100010001000100010044
:1004B0000100010001000100010000000100010035
:1004C0000100010001000100010001000100010024
:1004D0000100010001000100000001000100010015
:1004E0000100010001000100010001000100010004
:1004F00001000000010001000100010001000100F5
:1005000001000100010001000100010000000100E4
:1005100001000000010000000100000000000100D7
:1005200000000000000001000100000000000000C9
:1005300001000100010001000100010001000100B3
:1005400001000100010001000100010001000100A3
:100550000000010001000100010001000100010094
:100560000100010001000100010001000100000084
:100570000100010001000100010001000100010073
:100580000100010001000100000001000100010064
:100590000100010001000100010001000100010053
:1005A0000100000001000100000001000000010046
:1005B0000000000001000000000000000100010038
:1005C0000000000000000100010001000100010026
:1005D0000100010001000100010001000100010013
:1005E0000100010001000000010001000100010004
:1005F00001000100010001000100010001000100F3
:1006000001000100000001000100010001000100E3
:1006100001000100010001000100010001000000D3
:1006200001000100010001000100010001000100C2
:1006300001000100010001000000010001000000B4
:1006400001000000010000000000010000000000A7
:100650000000010001000000000000000100010096
:100660000100010001000100010001000100010082
:100670000100010001000100010001000000010073
:100680000100010001000100010001000100010062
:100690000100010001000100010000000100010053
:1006A0000100010001000100010001000100010042
:1006B0000100010000000100010001000100010033
:1006C0000100010001000100010001000100000023
:1006D0000100010000000100000001000000000016
:1006E0000100000000000000010001000000000007
:1006F00000000100010001000100010001000100F3
:1007000001000100010001000100010001000100E1
:1007100001000000010001000100010001000100D2
:1007200001000100010001000100010001000100C1
:1007300000000100010001000100010001000100B2
:1007400001000100010001000100000001000100A2
:100750000100010001000100010001000100010091
:100760000100010000000100010000000100000084
:100770000100000000000100000000000000010076
:100780000100000000000000010001000100010064
:100790000100010001000100010001000100010051
:1007A0000100010001000100000001000100010042
:1007B0000100010001000100010001000100010031
:1007C0000100010001000000010001000100010022
:1007D0000100010001000100010001000100010011
:1007E0000000010001000100010001000100010002
:1007F00001000100010001000100000001000100F2
:1008000000000100000001000000000001000000E5
:1008100000000000010001000000000000000100D5
:1008200001000100010001000100010001000100C0
:1008300001000100010001000100010001000000B1
:1008400001000100010001000100010001000100A0
:100850000100010001000100010001000000010091
:100860000100010001000100010001000100010080
:100870000100010001000000010001000100010071
:100880000100010001000100010001000100010060
:100890000000010001000000010000000100000054
:1008A0000000010000000000000001000100000045
:1008B0000000000001000100010001000100010032
:1008C0000100010001000100010001000100010020
:1008D0000100010000000100010001000100010011
:1008E0000100010001000100010001000100010000
:1008F00001000000010001000100010001000100F1
:1009000001000100010001000100010000000100E0
:1009100001000100010001000100010001000100CF
:1009200001000100010000000100010000000100C1
:1009300000000100000000000100000000000000B5
:1009400001000100000000000000010001000100A2
:10095000010001000100010001000100010001008F
:100960000100010001000100010000000100010080
:10097000010001000100010001000100010001006F
:100980000100010001000100000001000100010060
:10099000010001000100010001000100010001004F
:1009A0000100000001000100010001000100010040
:1009B0000100010001000100010001000000010030
:1009C0000100000001000000010000000000010023
:1009D0000000000000000100010000000000000015
:1009E00001000100010001000100010001000100FF
:1009F00001000100010001000100010001000100EF
:100A000000000100010001000100010001000100DF
:100A100001000100010001000100010001000000CF
:100A200001000100010001000100010001000100BE
:100A300001000100010001000000010001000100AF
:100A4000010001000100010001000100010001009E
:100A50000100000001000100000001000000010091
:100A60000000000001000000000000000100010083
:100A70000000000000000100010001000100010071
:100A8000010001000100010001000100010001005E
:100A9000010001000100000001000100010001004F
:100AA000010001000100010001000100010001003E
:100AB000010001000000010001000100010001002F
:100AC000010001000100010001000100010000001F
:100AD000010001000100010001000100010001000E
:100AE0000100010001000100000001000100000000
:100AF00001000000010000000000010000000000F3
:100B00000000010001000000000000006801F0008A
:100B1000B40078005A007F3F1F6432143214057805
:100B20003C1E1E140A050000000000010101010125
:100B30000101010102020202020202020203030396
:100B40000303030303040404040404050505050565
:100B50000606060606070707070808080809090920
:100B60000A0A0A0A0B0B0B0C0C0C0D0D0D0E0E0FC6
:100B70000F0F101011111112121313141415151652
:100B8000161717181819191A1A1B1C1C1D1D1E1FC1
:100B90001F20202122222324252526272728292A11
:100BA0002B2B2C2D2E2F2F30313233343536363738
:100BB00038393A3B3C3D3E3F40414243444647483A
:100BC000494A4B4C4D4F50515253555657585A5B0A
:100BD0005C5E5F606263646667696A6C6D6E7071AB
:100BE00073747678797B7C7E8081838486888A8B17
:100BF0008D8F91929496989A9B9D9FA1A3A5A7A94A
:100C0000ABADAFB1B3B5B7B9BBBDBFC1C4C6C8CA40
:100C1000CCCFD1D3D6D8DADCDFE1E4E6E8EBEDF0F7
:100C2000F2F5F7FAFCFF0403300000000A03440069
:100C30005A00360030000000080364006F007500A1
:100C400000000403090409026D00040100A0FA0970
:100C500004000001030101000921110100012240EB
:100C6000000705810308000A0904010001030102CD
:100C700000092111010001224D000705820308002F
:100C80000A0904020001030000000921110100010A
:100C90002236000705830308000A09040300010344
:100CA0000000000921110100012239000705840319
:100CB0002000011201100100000008EDFE6060013B
:100CC000000102030105010906A101050719E02938
:100CD000E71500250195087501810205081901290C
:100CE0000595057501910295017503910105071997
:100CF0000029F71500250195F875018102C005014D
:100D00000980A10185021601002603001A81002A2C
:100D10008300751095018100C0050C0901A10185B2
:100D200003160100269C021A01002A9C02751095E8
:100D3000018100C005010902A1010901A100050905
:100D400019012905150025019505750181029501F7
:100D5000750381010501093009311581257F95024F
:100D60007508810609381581257F9501750881066A
:100D7000050C0A38021581257F950175088106C08A
:100D8000C005010906A101050719E029E71500259D
:100D90000195087501810295017508810105081901
:100DA00001290595057501910295017503910105CC
:100DB00007190029FF150026FF0095067508810018
:100DC000C00011241FBECFEFDAE0DEBFCDBF04B6F6
:100DD00003FE24C08091B2029091B302A091B402AC
:100DE000B091B5028730904BA740B04BB9F4109248
:100DF000B2021092B3021092B4021092B50214BE65
:100E000084B7877F84BF88E10FB6F8948093600031
:100E1000109260000FBEE0E0F8E3099511E0A0E059
:100E2000B1E0E0E3F3E602C005900D92AE33B10706
:100E3000D9F722E0AEE3B1E001C01D92A23BB207B8
:100E4000E1F70E9470280C9496310C94000080E029
:100E500090E008950895089581E00895462F50E0A8
:100E60004730510508F050C0FA01EA5AFF4FDC0143
:100E700012968C910C942E31882309F445C00E945F
:100E8000AF1181E00E941F1140E03AC08823E1F1D8
:100E90000E94AF1181E00E941F1140E061E631C065
:100EA000882391F10E94AF1181E00E941F1140E060
:100EB0006FEF27C0882341F10E94AF1181E00E94AB
:100EC0001F1140E008C08823F9F00E94AF1181E0B3
:100ED0000E941F114FEF6FEF09C08823A9F00E94F5
:100EE000AF1181E00E941F114FEF60E080E00AC067
:100EF000882351F00E94AF1181E00E941F1140EF42
:100F000060E08FEF0C94730F089581FF02C0229A66
:100F100001C022982A98089581E008950C942C0726
:100F20000E94481A2FEF84E39CE0215080409040BB
:100F3000E1F700C000000C944F22FF920F931F9323
:100F4000CF93DF938C01FC01C081D181809192010C
:100F5000811113C08281882349F0CE010E948E1F27
:100F6000F82E682FCE010E94341F04C0CE010E94CB
:100F7000621FF82EBE018F2D04C0CE010E948E1F6D
:100F8000BE010E94D60AEC01B8010E948E07882398
:100F900009F491C2B801CE010E94600D882309F4C2
:100FA0008AC2C23CFCE5DF0741F4F8018281882354
:100FB00009F481C20E9405117EC2C33C8CE5D807AA
:100FC00008F039C1CB3B9CE5D90761F4F801828177
:100FD000882309F470C20E9460208272E1F00E94AE
:100FE000A61169C2CC3BECE5DE07C0F0CE3B9CE528
:100FF000D90709F4F1C008F003C1CC3BFCE5DF07D9
:1010000009F0F2C0F8018281882309F454C20E94D9
:101010006020827221F30E949C114DC2C531FCE513
:10102000DF0708F0A4C0C2308CE5D80708F478C008
:10103000F8018281882309F47FC00E94BF208111BA
:1010400002C00E9499200E94DC2090E09093A302AD
:101050008093A202FE01E350FC45E231F10520F449
:10106000E35AFF4F0C942E318091A202816003C09D
:101070008091A20282608093A2024BC08091A20262
:101080008460F9CF8091A20213C08091A202806196
:10109000F2CF8091A2028062EECF8091A2028064A2
:1010A000EACF8091A2028068E6CF8091A20284609C
:1010B0008860E1CF8091A2028E7FDDCF8091A20275
:1010C0008D7FD9CF8091A2028B7FD5CF8091A20254
:1010D00013C08091A2028F7ECECF8091A2028F7D1D
:1010E000CACF8091A2028F7BC6CF8091A2028F7758
:1010F000C2CF8091A2028B7F877FBDCF9091A20249
:1011000097FB882780F921E0822780FB97F990934D
:10111000A2028091A2020E94E0200E94481ACBC144
:10112000C1159CE5D90781F0C130DC45A9F081E00B
:101130008093430180934401C801DF91CF911F91B7
:101140000F91FF900C948C07F8018281882309F499
:10115000B2C10E949007AFC1F8018281882309F4CF
:10116000AAC180912A02816080932A02A4C1C5315C
:10117000FCE5DF0729F50E946020382FF801228165
:101180008091020190910301222371F03A7A21E0CB
:1011900009F420E020933E01222311F065E301C011
:1011A00069E20E94552109C020913E01222311F0DD
:1011B00065E301C069E20E9460210E942D207BC18D
:1011C000CA3BDC4509F0B3CFF8018281882309F4DA
:1011D00072C10E94E3116FC1F8018281882309F472
:1011E0006AC10E94961067C1CD3BDC4509F09FCFD4
:1011F000F8018281882309F45EC10E947D105BC1E1
:10120000F8018281C03CFCE5DF0731F4882309F452
:1012100052C10E94D0104FC1C13CDC4530F488233C
:1012200009F449C10E94B51046C1882309F443C19D
:101230000E94EA1040C1C93CECE5DE0749F4F80120
:101240008281882309F437C188E10E941F1133C1CC
:10125000CA3CFCE5DF0708F088C0C53C8CE5D80730
:10126000B1F4F8018281882309F425C10E944D0F51
:10127000663071058105910540F00E944D0F683080
:1012800071058105910508F4C6CE86E0DECFC63C27
:101290009CE5D90728F5C33CECE5DE0739F4F801F5
:1012A0008281882309F407C181E0CFCFC43CDC45AB
:1012B00009F03DCFF8018281882309F4FCC00E9427
:1012C0004D0F623071058105910540F00E944D0F70
:1012D000653071058105910508F49DCE82E0B5CF9A
:1012E000F8018281C73CFCE5DF07A1F4882309F4FB
:1012F000E2C00E944D0F6F3071058105910540F0ED
:101300000E944D0F643171058105910508F483CE6B
:101310008FE09BCFC83CDC45A0F4882309F4CBC008
:101320000E944D0F693071058105910540F00E94C2
:101330004D0F6E3071058105910508F46CCE89E082
:1013400084CF882309F4B7C00E944D0F6531710521
:101350008105910540F00E944D0F673171058105AF
:10136000910508F458CE85E170CFCC3CECE5DE0762
:1013700039F5F8018281882361F0109244010E94BE
:10138000F421909342018093410180E20E9445172D
:1013900092C08091440181110FC0809141019091D0
:1013A00042010E940022883C910530F487E20E94AD
:1013B000EC1587E20E94E41680E20E944C177BC085
:1013C000CD3CFCE5DF0708F041C0CA3C8CE5D807FE
:1013D000B1F4F8018281882309F46DC00E944D0F99
:1013E000693171058105910540F00E944D0F62320F
:1013F00071058105910508F40ECE89E126CFCB3C1D
:10140000DC4509F094CEF8018281882351F01092D6
:1014100043010E94F4219093400180933F0182E0B8
:10142000B5CF8091430181110FC080913F01909110
:1014300040010E940022883C910530F486E20E941F
:10144000EC1586E20E94E41682E0B7CFC03DECE5E1
:10145000DE0731F4F8018281882369F180E009C058
:10146000C13DFCE5DF0741F4F8018281882319F1D1
:1014700082E00E940A291FC0CD3CDC4509F057CE0E
:10148000F8018281811179CF80914401811194CF3B
:1014900080914101909142010E940022883C910577
:1014A00008F08ACF80E20E944C1788E20E94EC1577
:1014B00088E20E94E41680E0DF91CF911F910F91A6
:1014C000FF9008950C94AE0DCF92DF92EF92FF92B1
:1014D000863030F4811105C0909180009F7D04C05A
:1014E00085E090918000906290938000282F30E0FA
:1014F000AFEFBFEF0E94343125E030E040E050E034
:101500000E940C31C9012C3764E1360728F469E0E8
:1015100070E00E94E43029C0DA01C9018A50974D79
:10152000AF4FBF4F6627782F892F9A2F25EF38E2CC
:1015300041E050E00E940C3169017A01CA01B90111
:101540000E94D4309B01AC01C701B6010E94D43087
:10155000BB27A92F982F872F009721E0A207B1055D
:1015600011F0BC0102C06FEF7FEF70938B006093AE
:101570008A00FF90EF90DF90CF900895269A2E98E2
:1015800082E28093800089E1809381008FEF9FEF5A
:1015900090938700809386000C94F4250E94BE0AE5
:1015A0000C94AC0D0C9485070C94D20A9FE0799FA3
:1015B000F00111249BE4899FE00DF11D1124E60F39
:1015C000F11DEE0FFF1FE455FE4F85919491089594
:1015D000880F991F82569E4FFC0185919491089522
:1015E000CF93DF930E94D60A0E94B60CEC018115BE
:1015F00021E5920708F044C0C11580E5D80708F03E
:101600001FC1C83ED10510F5C03ED10508F0AAC1E2
:10161000C83AD10578F4C53AD10508F09CC0C1306C
:10162000D10509F49FC108F456C1C430D10508F0B2
:1016300099C151C1CD3BD10508F498C0C03CD1053A
:1016400008F449C1CE01805C9109E9C0C11520E3CD
:10165000D20780F4C11580E2D80708F0DEC0C03F91
:10166000D10508F438C1CF3FD10511F008F07AC197
:10167000D06578C1C11520E4D20708F0DEC0D3C020
:10168000C11586E5D80768F5C11525E5D20708F02C
:101690000DC1C11583E5D80750F4C11522E5D20765
:1016A00008F0EAC0DC2FCC27C16FD06A5BC1C1153E
:1016B00084E5D80708F0F5C08C2F8695869520E242
:1016C000829FC00111249E0123703327C1E0D0E026
:1016D00002C0CC0FDD1F2A95E2F7C82BD92BDA68A0
:1016E00041C1C53B2CE5D20709F4ECC098F4C33BDB
:1016F0002CE5D20709F4E0C008F0E1C0CE0198550E
:101700008F3F910511F008F0E6C0DC2FCC27C06FA9
:10171000D06A28C1C83B2CE5D20709F4D9C060F4CF
:10172000C63B2CE5D20709F4D0C0C73BDC4509F025
:10173000D2C0C0E0D2ED16C1CE01905681159042C4
:1017400008F0C9C08D2F8F710E94320DDD27D06245
:101750008F71D82B07C1C53AD10509F4BFC0C63A6D
:10176000D10509F4BEC0C3E8D0E4FCC0C83AD10535
:1017700009F4BAC0C93AD10509F4B9C0CA3AD105C9
:1017800009F4B8C0CB3AD10509F4B7C0CC3AD105B9
:1017900009F4B6C0CB3BD10509F4B5C0CC3BD105AB
:1017A00009F4B4C0CD3AD10509F4B3C0C03BD105AA
:1017B00009F4B2C0CE3AD10509F4B1C0CF3AD1058F
:1017C00009F4B0C0C13BD10509F4AFC0C23BD1059B
:1017D00009F4AEC0C33BD10509F4ADC0C43BD1058B
:1017E00009F4ACC0C53BD10509F4ABC0C63BD1057B
:1017F00009F4AAC0C73BD10509F4A9C0C83BD1056B
:1018000009F4A8C0C93BD10509F4A7C0CA3BD1055A
:1018100009F0A6C0CAE2D6E4A5C0CE019F700E941E
:10182000E80AEC019FC0CE019927D3FF03C0EC0169
:10183000D86C98C0EC01D06C95C0DF70D06A92C0B3
:101840002C2F237081E090E002C0880F991F2A9509
:10185000E2F79C689E0174E0369527957A95E1F74A
:101860002370922BCF70C695C69520E2C29FE001EF
:101870001124C82BD92B76C08C2F8695869520E213
:10188000829FC00111249E0123703327C1E0D0E064
:1018900002C0CC0FDD1F2A95E2F7C82BD92BDC68DC
:1018A00061C0DC2FCC27C46FD06A5CC0CF71DD274C
:1018B000DC2FCC27D06256C0C0E0D4ED53C0C0E0CE
:1018C000D5ED50C0C0E0D1ED4DC0C0E0D0ED4AC074
:1018D000C0E0D3ED47C0C0E0D0E044C0C1E8D0E4F0
:1018E00041C0C2E8D0E43EC0C2EED4E43BC0C9EE81
:1018F000D4E438C0CAEED4E435C0C5EBD4E432C079
:10190000C6EBD4E42FC0C3EBD4E42CC0C4EBD4E4C6
:1019100029C0C7EBD4E426C0CCECD4E423C0CDEC82
:10192000D4E420C0C3E8D5E41DC0CAE8D5E41AC099
:10193000C2E9D5E417C0C4E9D5E414C0C1E2D6E4D5
:1019400011C0C3E2D6E40EC0C4E2D6E40BC0C5E2C7
:10195000D6E408C0C6E2D6E405C0C7E2D6E402C0B9
:10196000C0E0D4E4CE01DF91CF9108958238910593
:1019700049F1B0F48133910509F459C048F4893232
:10198000910509F44FC08A32910509F455C00895B4
:101990008533910509F441C08933910599F0089583
:1019A000833E910531F138F4803E910591F0823EFD
:1019B0009105A9F00895863E910501F1873E9105B4
:1019C00039F108952091A20220FD3BC021FD39C0CC
:1019D00008958091A20280FF34C089E341C08091C4
:1019E000A20282FF32C08091A20284FF2CC080E05C
:1019F00037C08091A20282FD28C0F5CF8091A2025B
:101A000083FF25C08091A20284FDF1CF87EE28C01C
:101A10008091A20283FD1BC0F5CF8091A20285FFB9
:101A200018C019C08091A20285FF15C012C0809114
:101A3000A20286FF12C013C08091A20286FF0FC0CF
:101A40000CC080EE0DC083EE0BC082EE09C086EEA6
:101A500007C085E305C089E203C081E301C08AE2D3
:101A600090E00895CF93C82F0E94DC20282F30E00B
:101A70003093A3022093A20282FF0DC08C2F8871A5
:101A8000883019F4C77FC46006C08C2F84718430FD
:101A900011F4CB7FC86023FF0DC08C2F8871883173
:101AA00019F4C77EC46106C08C2F8471843111F48F
:101AB000CB7EC86124FDC77E8C2FCF9108950895F9
:101AC000CF93DF93EC01FB018281811102C081E0A1
:101AD00040C080915201811125C0C631DC45B9F763
:101AE0000E945F0D81E0809352010E94F421909347
:101AF00051018093500110924501109247011092BC
:101B00004601109249011092480110924B01109227
:101B10004A0110924D0110924C0110924F01109207
:101B20004E0116C080915001909151010E940022F7
:101B3000883C910560F680914501E82FF0E0EE0FBA
:101B4000FF1FEA5BFE4FD183C0838F5F8093450107
:101B500080E0DF91CF9108950C942A070C942B0715
:101B600085B7806885BF85B7806885BFA4E2B1E08E
:101B700021E030E08D91E82FE295EF70F0E041A197
:101B80008F70B90102C0660F771F8A95E2F7CB010B
:101B9000962F9095492341A392A1982B92A371E08F
:101BA000A932B70739F7A5E1B1E021E030E08D9126
:101BB000E82FE295EF70F0E041A18F70B90102C00B
:101BC000660F771F8A95E2F7CB01962F90954923F0
:101BD00041A392A1982B92A371E0A432B70739F7E1
:101BE000EDE5F1E0A3E5B1E0119211921D921D9295
:101BF00081E0E736F807C1F70C94CE0A4F925F9266
:101C00007F928F929F92AF92BF92CF92DF92EF928C
:101C1000FF920F931F93CF93DF9304E211E0C3E58C
:101C2000D1E0EE24E394F12C99249394BE01A88092
:101C3000B98019821882D8012D918D01E22FE29589
:101C4000EF70F0E081A12F70A70102C0440F551F73
:101C50002A95E2F79A01842B81A382A1842E809495
:101C6000882182A350EA5A95F1F745E1442E41E0DC
:101C7000542E80E090E0D2014D912D01C42EC294EB
:101C80003FE0C322D12CD60190967C90C880D980A9
:101C90004F70D70102C0AA0FBB1F4A95E2F77A2204
:101CA00041F4A701082E02C0440F551F0A94E2F721
:101CB00002C040E050E04C295D29598348830196D9
:101CC0008F309105C1F681A1882181A382A1822B49
:101CD00082A32296FB0180819181A816B90641F06A
:101CE000909267010E94F4219093690180936801AA
:101CF000F1E009321F0709F099CF8091670188232D
:101D0000B1F080916801909169010E9400220697CC
:101D100070F0E3E5F1E0ADE5B1E0819191918D9353
:101D20009D9341E0ED35F407C1F7109267010E94E1
:101D3000620A81E0DF91CF911F910F91FF90EF90A8
:101D4000DF90CF90BF90AF909F908F907F905F90EB
:101D50004F900895E82FF0E0EE0FFF1FE35AFE4F7B
:101D60008081918108950895DF92EF92FF920F9301
:101D70001F93CF93DF93493C08F048EC662309F4A6
:101D80004AC0C42FD0E0AFEFB0E0A61BB109BE013E
:101D9000A69FE001A79FD00DB69FD00D1124FD2F67
:101DA000DD2E7B01ED1AF1080CE310E0B8010E9472
:101DB000E430EB01BC01E69EC001E79E900DF69E6B
:101DC000900D1124B8010E94E430C230D105B1F069
:101DD00040F4209779F0219709F58F2FD42E461BD8
:101DE00020C0C430D10599F068F02597B9F4842F4C
:101DF000861B17C08F2FD62EDF0E13C0862F8F0F96
:101E0000D42E03C0D42ED61A842F4F2F0AC0842F6D
:101E1000462F4F0F06C0842FD42E03C080E0D12C54
:101E200040E0E42FF0E0EA5DF44F4491ED2DF0E066
:101E3000EA5DF44F9491E82FF0E0EA5DF44FE4910D
:101E4000D90111964C9311979C931296EC93DF91C4
:101E5000CF911F910F91FF90EF90DF90089588E050
:101E600090E00C945631AB01BC0188E090E00C94FA
:101E7000743183E080935802109259028FEF80935F
:101E80005A0280935B0260915802709159028091CE
:101E90005A0290915B020C94330F6091580260FFDC
:101EA00006C066956F7370E080E090E0089560E092
:101EB00070E0CB0108958091580280FF06C064E174
:101EC00070E080E692E00C949B14E2E6F2E0DF0121
:101ED00011971C9211971C921082339682E0EE3972
:101EE000F807A9F7ECCF9091580290FF0FC0E2E6F7
:101EF000F2E0DF0111978C9311976C934083339636
:101F000092E0EE39F907A9F70C945B0F0895CF9290
:101F1000DF92EF92FF920F931F93CF93DF9300D046
:101F20001F92CDB7DEB7F82EC92ED62EE42E009123
:101F300058021091590220915A0230915B0200938D
:101F40005C0210935D0220935E0230935F028091E9
:101F5000580280FF1EC09E012F5F3F4F8F2D0E94B1
:101F6000B40E80915C02F0FA87F980935C02F694DB
:101F700020915D0220782F29C0FA27F920935D0275
:101F8000D0925E02E0925F024B8169818A810E9459
:101F9000730F0F900F900F90DF91CF911F910F91C2
:101FA000FF90EF90DF90CF9008958F929F92AF9225
:101FB000BF92CF92DF92EF92FF920F931F93CF9336
:101FC000DF93EC01862E942E8091580280FF88C00A
:101FD000982F9E77923021F4CE010E94870F56C031
:101FE000E82FE695EF739EE39E0F9F73943018F4ED
:101FF00090905B024BC09AE39E0F9F73993070F4F0
:10200000881F8827881F90915902292F220FC22FDD
:10201000C82B97FB992790F9D92F38C087E28E0FEC
:102020008F738A3098F5F0E07997E0FF02C02FEFC8
:1020300001C021E0EE7FE45FF44F8591949164E16B
:1020400070E00E94E43026036001279FD00C112429
:102050007E0188E9E81A8EEFF80A00E612E088E6C9
:10206000A82EBB24B394C701B5010E94E4309801A7
:10207000492D682D0E94B40EEC0CFD1C0D5F1F4F06
:1020800092E00C39190779F70E945B0F8091580292
:102090009C2FC0FB87F98093580296958091590236
:1020A0008078892BD0FB87F98093590280925A025D
:1020B00090925B02609158027091590280915A028D
:1020C00090915B02DF91CF911F910F91FF90EF9064
:1020D000DF90CF90BF90AF909F908F900C94330F74
:1020E000DF91CF911F910F91FF90EF90DF90CF90F4
:1020F000BF90AF909F908F90089520915802221F1B
:102100002227221F30915902432F440F842F822B04
:1021100037FB992790F9089668E671E00E94F8303D
:1021200040915B0260915A020C94D50F20915802A5
:10213000221F2227221F30915902432F440F842F40
:10214000822B37FB992790F9883091051CF4805A2F
:102150009E4F01C0089768E671E00E94F8304091F8
:102160005B0260915A020C94D50F60915A02862F3F
:1021700090E0883F910514F4685F01C06FEF809193
:102180005802881F8827881F90915902292F220FF3
:1021900097FB992790F940915B02822B0C94D50F05
:1021A00060915A02862F90E0089714F0685001C0A1
:1021B00060E080915802881F8827881F90915902FB
:1021C000292F220F97FB992790F940915B02822BD0
:1021D0000C94D50F40915B02842F90E0883F9105CD
:1021E00014F4485F01C04FEF80915802881F882780
:1021F000881F90915902292F220F97FB992790F958
:1022000060915A02822B0C94D50F40915B02842F6F
:1022100090E0089714F0485001C040E080915802C7
:10222000881F8827881F90915902292F220F97FB1A
:10223000992790F960915A02822B0C94D50F9091B6
:10224000580290FF44C09178811102C0926003C08F
:10225000833220F094649093580205C08F73880FE6
:10226000892B809358026091580270915902809195
:102270005A0290915B020E94330F80915802982F6E
:102280009E77923019F410927F0110C0982F969586
:102290009F732EE3290F2F73273120F491E0909341
:1022A0007F0104C0995D9F739A3068F3881F882767
:1022B000881F90915902292F220F97FB992790F997
:1022C00040915B0260915A02822B0C94D50F0895C5
:1022D00080912A02816080932A0281E080938001AC
:1022E0000E94BF20811104C00E9499200E94390FD2
:1022F0000E942F0F609358027093590280935A02E4
:1023000090935B026E7761F40E94390F0E942F0F49
:10231000609358027093590280935A0290935B0223
:1023200081E080937F018091580280FF04C08695F0
:102330008F730C941F1108958091580286958F73A6
:102340008F5F833208F081E00C941F118091580256
:1023500086958F73815009F482E20C941F11CF93FC
:10236000DF93C8E5D2E0888181608883609158025C
:102370007091590280915A0290915B020E94330F32
:10238000888186958F73DF91CF910C941F11E8E5BA
:10239000F2E080818E7F80836091580270915902B3
:1023A00080915A0290915B020E94330F10927F013C
:1023B0002FEF80E792E0215080409040E1F700C08D
:1023C00000000C945B0F8091580280FD0C94C711A3
:1023D0000C94AF11CF93C82F80917D0190917E0115
:1023E0000E940022EC2FF0E0EE5DF44FE491F0E06B
:1023F0008E179F0708F442C00E94F42190937E013B
:1024000080937D0160917C0170E080E090E00E940B
:10241000F22E20E030E04FE753E40E942B2E2BED0C
:102420003FE049E450E40E9413300E9476300E945D
:10243000982E2BE43AE34EE25FE30E94C62D20EF94
:102440003BEF48ED52E40E9413300E94C42E462F09
:1024500080915802881F8827881F90915902292F40
:10246000220F97FB992790F960915A02822B0E94C4
:10247000870F80917C018F5F80937C01CF910895BD
:10248000CF93C82F80917A0190917B010E94002206
:10249000EC2FF0E0E15EF44FE491F0E08E179F073F
:1024A000E8F00E94F42190937B0180937A0140919F
:1024B0005B0260915A0280917801909179010E94AB
:1024C000870F8091780190917901019668E671E01B
:1024D0000E94E4309093790180937801CF91089520
:1024E000DF92EF92FF920F931F93CF93DF93D82E3B
:1024F00080917601909177010E940022ED2DE69562
:10250000F0E0E45EF44FE491F0E08E179F07E8F10D
:102510000E94F421909377018093760100E612E007
:10252000C0E0D0E028E6E22EFF24F394809174010D
:10253000909175018C0F9D1FB7010E94E4309801A6
:1025400040915B0260915A020E94B40E62960D5F48
:102550001F4FC83681E0D80749F70E945B0F2091D2
:10256000740130917501D0FE0AC0C9010196BE0107
:102570000E94E430909375018093740106C021504D
:1025800031093093750120937401DF91CF911F9130
:102590000F91FF90EF90DF900895AF92BF92CF928E
:1025A000DF92EF92FF920F931F93CF93DF93C82F89
:1025B00080FD03C0BB24B39402C0BB24BA948091B5
:1025C0007201909173010E940022C695EC2FF0E0F9
:1025D000E75EF44FE491F0E08E179F0708F466C0C1
:1025E0000E94F421909373018093720150E6E52ECE
:1025F00052E0F52E02E612E0C0E0D0E0F80131979B
:102600001082F7011082F801108244E0C42ED12C10
:10261000A12C809171018A0D87FD8C5E992787FD21
:102620009095C817D907E9F480915B028C9DA001B1
:102630008D9D500D11245595479555954795809141
:102640005802881F8827881F90915902592F550FCB
:1026500097FB992790F9970160915A02852B0E9468
:10266000B40EAB0CF1E0CF1AD108C114D10489F635
:10267000219683E0E80EF11C0D5F1F4FC431D10598
:1026800009F0BCCF0E945B0F8091710191E0B912FB
:1026900006C0811102C083E107C0815005C090E0EF
:1026A0000196BE010E94F83080937101DF91CF91B5
:1026B0001F910F91FF90EF90DF90CF90BF90AF9060
:1026C00008950F931F93CF93DF93C82F80916F01CD
:1026D000909170010E940022EC2FF0E0EA5EF44F2E
:1026E000E491F0E08E179F0708F467C00E94F42180
:1026F0009093700180936F01E2E6F2E0DF011197A1
:102700001C9211971C921082339682E0EE39F807E2
:10271000A9F7C0E0D0E004E110E0CE01B8010E94CA
:10272000F83020916E01332727FD3095FC01EE0F24
:10273000FF1FC217D3070CF120910101332727FD9A
:1027400030952C173D07CCF09F01280F391F205AD8
:102750003D4F80915802881F8827881F9091590209
:10276000592F550F97FB992790F940915B02609183
:102770005A02852B0E94B40E07C0E80FF91FE05AD9
:10278000FD4F1182108212822196C431D10529F6A3
:102790000E945B0F2091000180916E01820F809357
:1027A0006E0190910101920F90930101191614F49A
:1027B00083311CF0219520930001DF91CF911F916F
:1027C0000F910895EF92FF920F931F93CF93DF9392
:1027D00080916C0190916D010E940022883E93408F
:1027E000C8F10E94F42190936D0180936C01C09117
:1027F0006A01D0916B012196C170DD27D0936B01E6
:10280000C0936A0100E612E0F12C78E7E72E8F2DE5
:102810008695FE01E80FF11DCF018170992798017F
:1028200040915B0260915A02FC01EE9EC001EF9E56
:10283000900D11240E94B40EF3940D5F1F4FF4E12C
:10284000FF12E5CFDF91CF911F910F91FF90EF9095
:102850000C945B0FDF91CF911F910F91FF90EF9040
:10286000089580917F01882391F120915802822F51
:1028700086958F739EE3980F9F73943018F482505F
:102880000C94EA119AE3980F9F73933018F48650D2
:102890000C94401297E3980F9F73963018F4895068
:1028A0000C94701291E3980F9F73963018F48F5028
:1028B0000C94CD129BE2980F9F73933018F48551BE
:1028C0000C9461132E77203311F40C94E2130895C5
:1028D0003EB1242F209523233EB1342B4FB7F894DB
:1028E000FC01680F791FE617F70789F0819198E0DE
:1028F0003EB9000000C087FF2EB9880F000000C05D
:1029000000C000C02EB900C09A9591F7ECCF4FBF20
:1029100008952DB1242B2DB99B01220F331F260FB3
:10292000371FB9010E94681487EC90E00197F1F716
:1029300000C00000089544E00C948914909386012F
:10294000809385010895E0918501F091860130978B
:1029500021F00190F081E02D099480E00895E0914C
:102960008501F0918601309721F00280F381E02DFE
:1029700009940895E0918501F0918601309721F046
:102980000480F581E02D0994089520918301309110
:1029900084018217930771F09093840180938301DF
:1029A000E0918501F0918601309721F00680F78152
:1029B000E02D0994089520918101309182018217C0
:1029C000930771F09093820180938101E0918501DA
:1029D000F0918601309721F00084F185E02D099473
:1029E000089508950C94F11481E008950E94EB215C
:1029F0000E94B00D0E94BF220E94F4250C94681121
:102A00005F926F927F928F929F92AF92BF92CF927E
:102A1000DF92EF92FF920F931F93CF93DF93CDB787
:102A2000DEB72A970FB6F894DEBF0FBECDBF0E9467
:102A3000FE0D0E94F414811111C08FEF89838A83E7
:102A40001B820E94F4218160782F9D838C834981B1
:102A50005A816B818D810E94BE1557C098E8C92E9E
:102A600091E0D92E00E010E0AA24A394B12C502EBE
:102A7000802F0E94AA0E3C01F601E190F1906F01B7
:102A8000E826F926E114F10431F40F5F1F4F0530F9
:102A9000110569F7D2CF80912A0281FD0E94B30E01
:102AA00020E030E04501022E02C0880C991C0A94F7
:102AB000E2F7C4018E219F21892B09F12E835F82C9
:102AC0006820792081E0672809F480E088870E94E7
:102AD000F4218160782F9A8789874E815F8168858C
:102AE0008A850E94BE15F801EE0FFF1FE857FE4FC2
:102AF00080819181882599259183808306C02F5FED
:102B00003F4F2F30310571F6C0CF0E945F251091E5
:102B100087010E94A3141817D9F00E94A314809370
:102B200087012A960FB6F894DEBF0FBECDBFDF91A6
:102B3000CF911F910F91FF90EF90DF90CF90BF90BA
:102B4000AF909F908F907F906F905F900C94D40A7D
:102B50002A960FB6F894DEBF0FBECDBFDF91CF919E
:102B60001F910F91FF90EF90DF90CF90BF90AF90AB
:102B70009F908F907F906F905F900895CF93DF9399
:102B8000CDB7DEB72B970FB6F894DEBF0FBECDBF23
:102B90004F83588769877A878B87DE01119686E095
:102BA000FD0111928A95E9F785E0FE0137960190C3
:102BB0000D928A95E1F749815A816B817C818D81E3
:102BC0009E810E94121D2B960FB6F894DEBF0FBE99
:102BD000CDBFDF91CF910895882309F4F4C08238E6
:102BE000C1F40E94A31481FDEEC069E3809102014B
:102BF000909103010E9455210E942D202FEF81EE1C
:102C000094E0215080409040E1F700C0000069E36B
:102C100019C08338F9F40E94A31480FDD4C063E581
:102C200080910201909103010E9455210E942D2064
:102C30002FEF81EE94E0215080409040E1F700C0FA
:102C4000000063E580910201909103010E946021E0
:102C50000C942D208438C1F40E94A31482FDB3C0CB
:102C600067E480910201909103010E9455210E9426
:102C70002D202FEF81EE94E0215080409040E1F72D
:102C800000C0000067E4DECF9CEF980F913A40F45B
:102C9000682F80910201909103010E945521D8CFA5
:102CA00090E2980F983050F4877091E001C0990F2E
:102CB0008A95EAF7892F0E946320CACF9BE5980F77
:102CC000933070F4853A29F0863A31F482E890E046
:102CD00005C081E890E002C083E890E00C94C51440
:102CE00098E5980F953108F06EC0883A61F1893AFD
:102CF00069F18A3A71F18B3A79F18C3A81F18B3B27
:102D000089F18C3B91F18D3A99F1803BA1F18E3A9A
:102D1000A9F18F3AB1F1813BB9F1823BC1F1833B1B
:102D2000C9F1843BD1F1853BD9F1863BE1F1873B89
:102D3000E9F1883BF1F1893BF9F18A3B09F03FC0A9
:102D40008AE292E03EC082EE90E03BC089EE90E0E5
:102D500038C08AEE90E035C085EB90E032C086EB5B
:102D600090E02FC083EB90E02CC084EB90E029C072
:102D700087EB90E026C08CEC90E023C08DEC90E0D7
:102D800020C083E891E01DC08AE891E01AC082E982
:102D900091E017C084E991E014C081E292E011C093
:102DA00083E292E00EC084E292E00BC085E292E002
:102DB00008C086E292E005C087E292E002C080E0AF
:102DC00090E00C94DB140895882309F45DC08238E8
:102DD00079F40E94A31481FF57C069E38091020136
:102DE000909103010E9455210E942D2069E310C09B
:102DF0008338B1F40E94A31480FF46C063E580913C
:102E00000201909103010E9455210E942D2063E54B
:102E100080910201909103010E9460210C942D2069
:102E2000843879F40E94A31482FF2EC067E4809155
:102E30000201909103010E9455210E942D2067E418
:102E4000E7CF9CEF980F913A10F4682FE1CF90E212
:102E5000980F983050F4877091E001C0990F8A95CF
:102E6000EAF7892F0E946920D9CF9BE5980F93300C
:102E700020F480E090E00C94C514885A853120F449
:102E800080E090E00C94DB140895882321F00E94E8
:102E900063200C942D200895882321F00E9469203E
:102EA0000C942D2008958F929F92BF92CF92DF9223
:102EB000EF92FF920F931F93CF93DF9300D0CDB784
:102EC000DEB74C01472FFC01C580C2949FE0C922A8
:102ED000D280DD2031F079836A830E9480206A816C
:102EE000498149836A830E94262049816A81882317
:102EF00089F0DD2079F080E2860F883058F082E09A
:102F00000E940F200E942620BB24B394B82649813A
:102F10006A8101C0B12CE42EE2948FE0E822F12C0A
:102F2000F701E159FF4F0C942E31842F807F142F2D
:102F30001F70882311F01295107FDD20C1F011233E
:102F400009F4DDC180E2860F883010F0611105C000
:102F5000812F6A830E94632004C0812F6A830E94AC
:102F600073206A816A830E942D206A81C8C1862FDE
:102F70006A830E94E4166A81112309F407C280E281
:102F8000860F883010F0611104C0812F0E946920E3
:102F900003C0812F0E9479200E942D20F7C1242F89
:102FA000207F842F8F70203211F08295807F6623DE
:102FB00019F06130B9F022C0DD2049F0CC2009F4CD
:102FC00052C1F1E0CF124FC10E949320DFC1CC204B
:102FD00021F021E0C21609F4D9C189830E9496200C
:102FE000898147C1DD2029F095E09C1508F4CEC108
:102FF0003AC1E4E0EC1508F4C9C13BC1DD2051F051
:10300000CC2009F430C1F401958190FF78C19F7004
:10301000958329C1CC2009F42CC182C1242F269587
:103020002695237030E02115310521F0213031053E
:1030300061F0ACC1DD2021F0862F942F937002C087
:1030400080E090E00E94C514B1C1DD2021F0862F00
:10305000942F937002C080E090E00E94DB14A6C120
:10306000DD20F9F0653F51F0663F71F0643FA9F44F
:1030700080919C0290919D0281600BC080919C0286
:1030800090919D02826005C080919C0290919D026A
:10309000846090939D0280939C02862F0E946724F7
:1030A00022C0653F51F0663F91F0643FC9F48091C2
:1030B0009C0290919D028E7F05C080919C02909110
:1030C0009D028D7F90939D0280939C0209C0209168
:1030D0009C0230919D022B7F30939D0220939C0295
:1030E000862F0E94CF240E94542560C1842F8370B4
:1030F00009F04EC0D11056C1262F22952695277073
:10310000220F220F862F8F70C82ED12CE12CF12C8C
:10311000022E04C0CC0CDD1CEE1CFF1C0A94D2F75E
:1031200064FF10C06FE070E080E090E004C0660FC4
:10313000771F881F991F2A95D2F760957095809503
:10314000909503C060E070E0CB01242F2695269572
:10315000237030E02230310569F02330310589F0E9
:103160006C297D298E299F292130310571F00E941B
:10317000611E18C16C297D298E299F290E94731E0A
:1031800011C10E94611EC701B6010E944F1E0AC1F3
:10319000DD2019F0842F817001C08695882309F401
:1031A00001C1262F229526952770220F220F862FE8
:1031B0008F70C82ED12CE12CF12C022E04C0CC0C27
:1031C000DD1CEE1CFF1C0A94D2F764FF10C06FE0F8
:1031D00070E080E090E004C0660F771F881F991FA1
:1031E0002A95D2F7609570958095909503C060E020
:1031F00070E0CB01242F26952695237030E02230F5
:10320000310569F02330310589F06C297D298E293B
:103210009F292130310571F00E940F1FC3C06C2916
:103220007D298E299F290E94211FBCC00E940F1F4B
:10323000C701B6010E94FD1EB5C0062F10E0F801BF
:10324000E05EF109E531F10508F055C0E158FF4FA6
:103250000C942E31162F1F70842F8F71DD2031F0CA
:103260000E94A81E812F0E94451790C00E94C31E75
:10327000812F0E944C178AC0DD2049F0F4E0FC1534
:1032800008F484C0842F8F710E94E21E7FC025E065
:103290002C1508F47BC0F6CFDD2039F0842F8F7118
:1032A0000E94A81E73C0DD20C9F3842F8F710E9475
:1032B000C31E6CC0DD2029F0842F8F710E94991EDF
:1032C00065C00E94941E62C0DD2051F0142F1F7152
:1032D000812F0E94A81E63E0812F0E94062056C005
:1032E00081E00E940F2081E08C1508F04FC082E041
:1032F0000E940F204BC0DD2031F0CC2079F2862FC8
:103300000E94EC1543C0CC2081F2693349F49FEF51
:10331000E7EEF3E09150E040F040E1F700C000003C
:10332000862F0E94E41632C04F70C4010E94270706
:103330000E94BF1D3BC0D11039C0942F9F70892FB0
:1033400090E08230910599F03CF4009769F0019784
:10335000E9F40E942D262AC08430910571F054F0C2
:103360000597A1F480E00AC00E9411261FC00E94A8
:1033700049261CC00E94632619C085E00E94882649
:1033800015C04F70C4010E942E0710C028E0E2163D
:10339000F10441F05CF09AE0E91AF108E2E0EE167F
:1033A000F10420F40E94A3140E94D40ABB20F1F07F
:1033B0000E94022080FD1AC0F40112820E94FC1FAC
:1033C0000E94A81EC4010E94041A0E94FC1F0F90B4
:1033D0000F90DF91CF911F910F91FF90EF90DF90B1
:1033E000CF90BF909F908F900C94C31E0F900F9022
:1033F000DF91CF911F910F91FF90EF90DF90CF90D1
:10340000BF909F908F9008950F931F93CF93DF935A
:10341000EC01288139818B819C81892B31F03F3FE0
:1034200011F080E003C02F3FE1F781E0811113C06C
:10343000CE010E949D07882371F0688179818A817D
:103440000E94D91F8C010E94331F0E944C1EB8019C
:10345000CE010E945317DF91CF911F910F910895D4
:103460000E9480200E94902080910201909103018F
:103470000E946B210E942D200E94E8250E94542565
:1034800080E090E00E94C51480E090E00C94DB1492
:103490000E9470200C94301A0E94CE1FE92FE295F2
:1034A000EF70F0E03297EE30F105B8F4EC56FF4FD4
:1034B0000C942E31803F59F018F4803E70F407C010
:1034C000843F59F404C0803E10F0813F31F481E024
:1034D000089593FB882780F9089580E00895CF939D
:1034E000DF9300D000D01F92CDB7DEB70F900F90C2
:1034F0000F900F900F90DF91CF910895CF93DF93AE
:1035000000D000D000D0CDB7DEB726960FB6F89425
:10351000DEBF0FBECDBFDF91CF9108951F93CF9334
:10352000DF93C091930116E080919401C81799F040
:10353000D0E01C9FF0011D9FF00D1124EB56FE4FB3
:103540004081518162817381848195810E947E1ABC
:103550002196C770E9CFDF91CF911F9108954091D7
:10356000C5015091C6016091C7017091C801809159
:10357000C9019091CA010C947E1ACF938091CA011F
:1035800082958F7009F05FC08091C701882309F48C
:103590005AC020919301A09194016091C50170914E
:1035A000C6018091C8019091C90131E06F3F09F0D7
:1035B00030E0B32FC6E02A1709F445C0009721F088
:1035C0007F3F21F44B2F03C041E001C040E030E0D9
:1035D00040FD35C0C29FF001C39FF00D1124EB5692
:1035E000FE4F418174132BC04081641328C0428177
:1035F000411125C0438154814817590710F44150A7
:103600005109481B590B483C5105C8F48091CA0127
:103610008F7080618093CA0186E0829FF001839F52
:10362000F00D1124E656FE4F80818F7080618083FB
:1036300085EC91E00E94041ACF910C948E1A2F5FB2
:103640003F4F2770B8CFCF910895CF92DF92EF927E
:10365000FF920F931F93CF93DF93CDB7DEB762979F
:103660000FB6F894DEBF0FBECDBF8C0185E0F80128
:10367000DE011D9601900D928A95E1F7D8014C91DB
:1036800011965C91119712966C9112971396ED908A
:10369000FC9014977091C501E091C6012091C8017A
:1036A0003091C9012115310531F0EF3F31F481E04E
:1036B0007F3F19F403C081E001C080E0B82FB170F2
:1036C000CB2E80FD6CC1D090C701DD2009F4F5C080
:1036D000F091CA01E216F30638F0C701821B930B82
:1036E000883C910548F09BC0209530952E0D3F1DDC
:1036F000283C310508F093C08F2F807F09F052C01D
:10370000E51314C0741312C0D62E61110FC0FF70E0
:10371000F061F093CA010E94AF1A85EC91E00E941B
:10372000041A8091CA01F80185836CC1EF2831F039
:103730005F3F31F481E04F3F19F403C081E001C0E5
:1037400080E080FD03C081E0862701C080E0F82F83
:10375000F170FF2E80FF1CC0809193012091940195
:1037600036E0821709F428C190E0389FF001399FB4
:10377000F00D1124EB56FE4F7181571306C0708176
:10378000471303C07281671303C001968770E9CFA6
:10379000D62E662309F436C18091CA0181608093D8
:1037A000CA0153C0E51308C0741306C0611104C0F8
:1037B000D8011596FC93AEC04D875E878D859E859A
:1037C0006A8B0E944C1A6A89882329F1D62E6623B7
:1037D00011F12091CA01822F82958F7090E002979B
:1037E0000CF460C08091C5019091C60198878F83C9
:1037F0001986FB86EA862C87CE01079651C0E5170D
:1038000031F14D875E878D859E856A8B0E944C1AAB
:103810006A8981112EC0C8010E94041AA4C08F2F8A
:10382000807F69F77E2DF98AE88A89890E946F1A5C
:1038300085EC91E00E94041AE5ECF1E086E0DF01FE
:103840001D928A95E9F70E94AF1AD12CDBC0741340
:10385000D8CF6111D6CFD8011596FC93C8010E942C
:10386000041AE5ECF1E086E0DF011D928A95E9F7A4
:10387000C9C0D62E662379F22091CA01822F829583
:103880008F7090E0029774F08091C5019091C6010D
:103890009A8389831B82FD82EC822E83CE0101965E
:1038A0000E94041A86E0F801A5ECB1E001900D92A7
:1038B0008A95E1F70E94BD1A6FC0E216F30628F060
:1038C000C701821B930B9C0104C0209530952E0DDF
:1038D0003F1D283C310508F052C0D62E662309F45E
:1038E0009ACFE5132CC074132AC08091CA0180FDC1
:1038F0001DC0982F92959F70C9F0D80115968C9392
:1039000015979F3039F09F5F9295907F8F70892B2C
:1039100015968C93C8010E94041A86E0F801A5EC64
:10392000B1E001900D928A95E1F736C086E0F8018A
:10393000A5ECB1E001900D928A95E1F763C04D8747
:103940005E878D859E850E944C1A882379F086E0DB
:10395000F801A5ECB1E001900D928A95E1F70E9483
:10396000BD1A0E94AF1ADD24D3944CC08091CA01C5
:1039700081608093CA01C8010E94041A43C07E2D51
:10398000F98AE88A89890E946F1AE5ECF1E086E0FD
:10399000DF011D928A95E9F70E94AF1A33C06623B2
:1039A00009F439CF4D875E878D859E850E944C1A1C
:1039B000882309F430CFCBCF4D875E878D859E85D8
:1039C0000E94CE1F292F22952F7030E02230310522
:1039D0002CF49F7041F0811106C00CC024303105D9
:1039E0002CF49F7049F4805E883020F0C8010E945A
:1039F000041ACF2CDC2C06C0D80115969C91907F20
:103A000091F7F8CF8D2D62960FB6F894DEBF0FBEFA
:103A1000CDBFDF91CF911F910F91FF90EF90DF907D
:103A2000CF9008951F93CF93DF93CDB7DEB72C9738
:103A30000FB6F894DEBF0FBECDBF4F83588769879E
:103A40007A878B879C87CE0107960E94251B882347
:103A5000C1F02F8138858A859B85892B31F03F3FC6
:103A600011F080E003C02F3FE1F781E0811147C0F2
:103A70004F81588569857A858B859C850E947E1A41
:103A80003EC086E0FE013796DE01119601900D9250
:103A90008A95E1F7FF81E8854A855B8541155105E7
:103AA00031F0EF3F31F481E0FF3F19F403C081E0D2
:103AB00001C080E080FD23C02091940130E0C90165
:103AC0000196877099276091930170E08617970798
:103AD000F1F1F983EA835D834C8396E0929FD001F4
:103AE000939FB00D1124AB56BE4FFE01319601904D
:103AF0000D929A95E1F7809394010E948E1A16E038
:103B00008091930190919401891779F1189FC001D8
:103B100011248B569E4F0E94251B882331F1E09182
:103B200093011E9FF0011124EB56FE4F40815181FD
:103B300062817381848195810E947E1A80919301B4
:103B400090E001968770992780939301D9CF0E94C6
:103B5000481A1092940110929301E5ECF1E086E08E
:103B6000DF011D928A95E9F7CACF2C960FB6F8941B
:103B7000DEBF0FBECDBFDF91CF911F910895EF92B1
:103B8000FF920F931F93CF93DF93FC01009709F4EB
:103B90006FC0F12CEE24E394EF01219684918437D9
:103BA00040F4843008F055C0813081F0823021F13A
:103BB0005FC0853709F447C0C0F19CE7980F903784
:103BC00008F056C08F770E94E41645C08F010E5F43
:103BD0001F4FFE01849190E2980F983050F4877047
:103BE000FE2D01C0FF0F8A95EAF78F2F0E948320D8
:103BF00015C00E94EC1514C08F010E5F1F4FFE010F
:103C0000849190E2980F983068F48770FE2D01C07F
:103C1000FF0F8A95EAF78F2F0E9489200E942D209E
:103C2000E80119C00E94E416FBCFCF010296FE0105
:103C3000C491CC2361F0EFE9FFE03197F1F700C0C8
:103C40000000C150F6CFCF010296FE01F490EC01C6
:103C500002C00E94EC158F2D882341F0EFE9FFE0B0
:103C60003197F1F700C000008150F6CFFE0194CFEC
:103C7000DF91CF911F910F91FF90EF9008950895DC
:103C80000E943F1E60930102709302028093030220
:103C9000909304020C94301A08950C94401E0F93D4
:103CA0001F930091010210910202209103023091B2
:103CB0000402602B712B822B932B1F910F910C947C
:103CC000401E0F931F930091010210910202209158
:103CD00003023091040260237123822393231F91F6
:103CE0000F910C94401E0F931F93009101021091AD
:103CF000020220910302309104026027712782277B
:103D000093271F910F910C94401E08950C94851ECB
:103D10000E94861E6093FD017093FE018093FF0157
:103D2000909300020C94301A60E070E0CB010C9488
:103D3000881E41E050E060E070E004C0440F551F71
:103D4000661F771F8A95D2F7CB01BA010C94881EA3
:103D500041E050E060E070E004C0440F551F661F72
:103D6000771F8A95D2F78091FD019091FE01A09175
:103D7000FF01B0910002482B592B6A2B7B2BCB0102
:103D8000BA010C94881E41E050E060E070E004C08D
:103D9000440F551F661F771F8A95D2F7409550959F
:103DA000609570958091FD019091FE01A091FF01B9
:103DB000B0910002482359236A237B23CB01BA0127
:103DC0000C94881E41E050E060E070E004C0440FB5
:103DD000551F661F771F8A95D2F78091FD0190913C
:103DE000FE01A091FF01B0910002482759276A27E0
:103DF0007B27CB01BA010C94881E0F931F9300916F
:103E0000FD011091FE012091FF0130910002602B15
:103E1000712B822B932B1F910F910C94881E0F9363
:103E20001F930091FD011091FE012091FF0130913F
:103E3000000260237123822393231F910F910C941E
:103E4000881E0F931F930091FD011091FE01209198
:103E5000FF013091000260277127822793271F916D
:103E60000F910C94881E08952FE0929F800D1124CD
:103E7000482F4695469546958770B1E001C0BB0F27
:103E80008A95EAF785E0489FA001112445535E4FCB
:103E900080E090E070E0FA01E80FF91FA0819B013B
:103EA000082E02C0369527950A94E2F72170332731
:103EB00021952A272B232A272083019685309105D7
:103EC00051F708952FE0929F800D1124682F669579
:103ED00066956695982F977085E0689FB0011124CC
:103EE00065537E4F40E050E080E0FB01E40FF51F9A
:103EF000208130E0092E02C0369527950A94E2F71A
:103F000021703327042E01C0220F0A94EAF7822B76
:103F10004F5F5F4F4530510541F70895CF92DF92D3
:103F2000EF92FF920F931F93CF93DF93EC01C0901A
:103F30000102D0900202E0900302F090040280910E
:103F4000FD019091FE01A091FF01B0910002C82AED
:103F5000D92AEA2AFB2A0FE110E0B701A601002EB8
:103F600004C076956795579547950A94D2F740FD1A
:103F700005C00150110988F780E007C0BE01802FFD
:103F80000E94F00A0197A9F3802FDF91CF911F9132
:103F90000F91FF90EF90DF90CF900895CF93DF9334
:103FA000EC010E948E1FBE010E94F00ADF91CF91AA
:103FB00008951F93CF93DF93EB0190919201992382
:103FC00021F0CB010E94CE1F13C0882349F0CB0102
:103FD0000E948E1F182F682FCE010E94341F04C02C
:103FE000CB010E94621F182FBE01812F0E94F00A90
:103FF000DF91CF911F910895809105028595859558
:1040000085950895809105028770089598E0899FAD
:1040100090011124622B609305020C94A81E40911C
:1040200005028095842380930502982F977069F488
:1040300050E0282F332727FD30954217530729F0EA
:104040008595859585950C94C31E089590910502DC
:10405000977081E009F480E00895E0910201F09109
:104060000301809129028083E0910201F091030114
:10407000808190912802892B8083E0910201F09148
:104080000301808190912702892B80839091060201
:10409000992381F0E0910201F09103018081892B45
:1040A000808380910201909103010E94EE20811192
:1040B0001092060280910201909103010C94AF14BA
:1040C00080912902089590912902982B90932902BA
:1040D000089580959091290298239093290208953C
:1040E00010922902089590912802982B909328020B
:1040F000089580959091280298239093280208951E
:1041000010922802089590912702982B90932702ED
:1041100008958095909127029823909327020895FF
:1041200010922702089580930602089510920602C5
:1041300008956DEE7EEF80E090E00E94803160E0B7
:1041400082E090E00E94623160E083E090E00E94B3
:10415000623160E084E090E00E94623160E085E0DE
:1041600090E00E94623160E086E090E00E9462315F
:1041700040E050E0BA0188E090E00C94743180E0B7
:1041800090E00E945C3121E08D3E9E4F09F020E0DE
:10419000822F089582E090E00C944E31682F82E0E7
:1041A00090E00C94623183E090E00C944E31682FE3
:1041B00083E090E00C94623184E090E00C944E3106
:1041C000682F84E090E00C94623186E090E00C94DB
:1041D0004E31682F86E090E00C94623120E030E0B0
:1041E00040E0FC01E20FF31F518151114F5F2F5F3F
:1041F0003F4F2F313105A9F7842F089520E030E09B
:104200004FEFFC01E20FF31F5281561799F04F3F19
:1042100019F4511101C0422F2F5F3F4F2E3131054C
:1042200081F74F3F39F0FC01E40FF11D47FDFA958E
:1042300062830895089520E030E0FC01E20FF31F4F
:104240004281461301C012822F5F3F4F2E3131054C
:10425000A1F70895262F2695269526952F3170F4DF
:10426000FC01E20FF11D677021E030E0062E01C075
:10427000220F0A94EAF78181822B81830895262FE9
:104280002695269526952F3178F4FC01E20FF11D35
:10429000677021E030E0062E01C0220F0A94EAF791
:1042A00020958181282321830895209114012223C0
:1042B00029F02091A20227FD0C942A210C94FE20C3
:1042C00020911401222329F02091A20227FD0C94B1
:1042D0003F210C941B2120E030E0FC01E20FF31F92
:1042E00011822F5F3F4F2F313105B9F7089580912B
:1042F000A902843039F110922B0220E488E190E089
:104300000FB6F894A895809360000FBE20936000CC
:1043100080E00E94640A80E00E94D40A83B7817F13
:10432000846083BF83B7816083BF7894889583B7A7
:104330008E7F83BF88E10FB6F8948093600010925F
:1043400060000FBE089508950895CF930E94A321A1
:104350000E94FE0D0E94A421C0E08C2F0E94AA0E94
:10436000892B29F4CF5FC530C1F780E001C081E01F
:10437000CF9108950E94481A0E94F4250E94A31428
:104380000C94D40A1F920F920FB60F9211248F93A0
:104390009F93AF93BF9380912B02811113C08091A3
:1043A0009E0290919F02A091A002B091A10241961D
:1043B000A11DB11D80939E0290939F02A093A00225
:1043C000B093A102BF91AF919F918F910F900FBEBB
:1043D0000F901F90189582E084BD93E095BD9AEFF1
:1043E00097BD80936E0008952FB7F89480919E0238
:1043F00090919F02A091A002B091A1022FBF0895B9
:10440000CF92DF92EF92FF920F931F932FB7F89402
:1044100040919E0250919F026091A0027091A10272
:104420002FBF6A017B01EE24FF248C0120E030E0E5
:10443000C016D106E206F30610F441505109481B9C
:10444000590BCA011F910F91FF90EF90DF90CF9011
:10445000089578941F920F920FB60F9211248F93A4
:104460009F93AF93BF9380919E0290919F02A091E2
:10447000A002B091A1020196A11DB11D80939E02E0
:1044800090939F02A093A002B093A102BF91AF911D
:104490009F918F910F900FBE0F901F90189581E004
:1044A0008093E00080E28093D8001092C9008FE1F1
:1044B0009EE40197F1F700C0000087E090EBDC017B
:1044C0008093B2029093B302A093B402B093B5026A
:1044D0002CE088E190E00FB6F894A89580936000F6
:1044E0000FBE20936000FFCFBF92CF92DF92EF927A
:1044F000FF920F931F93CF93DF93B12C01E010E055
:10450000E82EF12C8B2D0E94AA0E6C01C0E0D0E0A9
:1045100098010C2E02C0220F331F0A94E2F72C21BF
:104520003D21232B29F42196CF30D10589F70AC0EC
:104530006C2F7B2D80E00E94D60AE816F90699F7C9
:1045400081E005C0B39485E0B812DCCF80E0DF9154
:10455000CF911F910F91FF90EF90DF90CF90BF9080
:104560000895CF93C82F8CE20E947422882321F0F3
:104570008C2FCF910C94742280E0CF910895CF932B
:104580000E94BF20811102C00E949920C5E6C1503F
:1045900049F00E94FE0D8FE39CE90197F1F700C0FE
:1045A0000000F5CF89E20E94B12281110DC18AE29B
:1045B0000E94B12281110E94992085E00E94B122BF
:1045C00081110E944F220E94CA2080932A0287E014
:1045D0000E94B122882399F18BE10E94B1228823A5
:1045E00051F090912A0291FB882780F921E08227DF
:1045F00080FB91F922C08EE00E94B122882351F005
:1046000090912A0292FB882780F921E0822780FB83
:1046100092F913C080E10E94B12290912A0288236E
:1046200041F093FB882780F921E0822780FB93F9F2
:1046300004C0892F809580FB90F990932A02809185
:104640002A020E94CE200E94DC2090E09093A302D8
:104650008093A20280EE0E94B122882341F08091D3
:10466000A202982F909590FB80F98093A20289E393
:104670000E94B122882359F09091A20291FB8827D1
:1046800080F921E0822780FB91F99093A20282EECB
:104690000E94B122882359F09091A20292FB8827B0
:1046A00080F921E0822780FB92F99093A20286EEA6
:1046B0000E94B122882359F09091A20293FB88278F
:1046C00080F921E0822780FB93F99093A20283EE88
:1046D0000E94B122882359F09091A20294FB88276E
:1046E00080F921E0822780FB94F99093A20285E370
:1046F0000E94B122882359F09091A20295FB88274D
:1047000080F921E0822780FB95F99093A20281E352
:104710000E94B122882359F09091A20296FB88272B
:1047200080F921E0822780FB96F99093A20281E133
:104730000E94B122882359F09091A20297FB88270A
:1047400080F921E0822780FB97F99093A202809163
:10475000A2020E94E02087E20E94B122C82F8EE1CF
:104760000E94B1228111C2608FE10E94B1228111A9
:10477000C46080E20E94B1228111C86081E20E947F
:10478000B1228111C06182E20E94B1228111C06216
:1047900083E20E94B1228111C06484E20E94B122AE
:1047A000882311F0C06802C0CC2329F08C2F0E940E
:1047B000D7206C2F03C00E94D320682F70E080E0C8
:1047C00090E0CF910C944D1ECF91089580912E02D0
:1047D00080FF0BC06091070185E0689FB001112444
:1047E00075956795759567952AC081FF09C0609199
:1047F000070185E0689FB0011124759567951FC07A
:1048000082FF07C06091070185E0689FB001112415
:1048100016C040912F024423C9F06091060146174B
:1048200088F72091070185E0289F90011124429F7D
:10483000C001439F900D112470E00E94F830603851
:10484000710540F46115710539F002C065E070E052
:10485000862F08958FE7089581E0089580912E02B4
:1048600080FF08C06091050170E0759567957595AA
:10487000679521C081FF06C06091050170E07595C4
:10488000679519C082FF04C06091050170E010C0F7
:1048900080912F028823C1F0609104018617A0F750
:1048A00090910501989FC001112470E00E94F8309A
:1048B0006038710528F46115710521F0862F08957F
:1048C0008FE7089581E0089561E070E0F4CF803FC4
:1048D00021F40E94E623819504C0813F29F40E94BF
:1048E000E623809332020895823F21F40E94E6235A
:1048F000819504C0833F29F40E94E623809331020E
:104900000895893F19F40E942E2405C08A3F31F48E
:104910000E942E2481958093330208958B3F21F4C9
:104920000E942E24819504C08C3F29F40E942E24DD
:10493000809334020895843F21F480913002816095
:1049400017C0853F21F480913002826011C0863FFC
:1049500021F48091300284600BC0873F21F4809164
:104960003002886005C0883F31F480913002806158
:104970008093300208958D3F21F480912E02816052
:104980000BC08E3F21F480912E02826005C08F3FC4
:1049900029F480912E02846080932E020895803F36
:1049A00039F48091320287FF6CC01092320269C0E4
:1049B000813F29F4809132021816BCF362C09091B5
:1049C0003102823F29F497FF5CC01092310259C036
:1049D000833F19F41916CCF354C0893F41F48091F8
:1049E000330218160CF04DC0109233024AC08A3FB1
:1049F00029F48091330287FF44C0F6CF8B3F39F40E
:104A00008091340287FF3DC0109234023AC08C3F3F
:104A100029F4809134021816BCF333C0843F21F48A
:104A2000809130028E7F17C0853F21F48091300243
:104A30008D7F11C0863F21F4809130028B7F0BC0A7
:104A4000873F21F480913002877F05C0883F31F491
:104A5000809130028F7E8093300213C08D3F21F40D
:104A600080912E028E7F0BC08E3F21F480912E020A
:104A70008D7F05C08F3F29F480912E028B7F80931C
:104A80002E028091310281110EC08091320281117B
:104A90000AC080913302811106C0809134028111D5
:104AA00002C010922F02089580E392E00E94BA148F
:104AB0000E94F42190932D0280932C0208951F935D
:104AC000CF93DF9380912C0290912D020E940022BF
:104AD00040912F02442321F02091080130E006C0CC
:104AE000209109015AE0259F900111248217930714
:104AF00008F46AC08091310210913202D0913302E1
:104B0000C0913402811107C0111105C0D11103C039
:104B1000CC2309F459C04F3F19F04F5F40932F0247
:104B2000181624F40E94E62380933102809131020A
:104B300087FF05C00E94E6238195809331021116FC
:104B400024F40E94E623809332028091320287FF90
:104B500005C00E94E62381958093320220913102A4
:104B6000222379F040913202442359F055EB25037A
:104B700090011124309331024503C0011124909318
:104B800032021D1624F40E942E2480933302809159
:104B9000330287FF05C00E942E2481958093330243
:104BA0001C1624F40E942E24809334028091340237
:104BB00087FF05C00E942E24819580933402DF91E7
:104BC000CF911F910C945425DF91CF911F9108959F
:104BD000E0E3F2E085E0DF011D928A95E9F71092AB
:104BE0002F0210922E0208950E94BF20811102C050
:104BF0000E9499200E94E5208093A402282F2695E8
:104C000030E02630310524F081708A608093A40260
:104C10008091A40280FF02C0869501C080E00C94C0
:104C2000640A2091A402322F3695832F90E00597D5
:104C300044F491E0930F990F822F8170892B809318
:104C4000A4028091A40281608093A4020E94E920C2
:104C50008091A40286950C94640A8091A402982FF6
:104C6000969591F09158990F8170892B8093A402A9
:104C70008E7F91E009F490E08091A40290FB80F98E
:104C80008093A4020E94E9208091A40286950C944E
:104C9000640A8091A402982F909590FB80F98093EC
:104CA000A402813019F483E08093A4028091A402CD
:104CB0000E94E9208091A40280FF02C0869501C075
:104CC00080E00C94640A3091A402232F26952F5F74
:104CD0002F77822F90E0317006972CF4220F232B30
:104CE0002093A40202C03093A4028091A4028E7F7C
:104CF00091E009F490E08091A40290FB80F9809308
:104D0000A4020E94E9208091A40286950C94640A72
:104D1000863008F085E0880F9091A4029170982B5E
:104D20009093A4029E7F21E009F420E08091A402E8
:104D300020FB80F98093A4020E94E9208091A402C4
:104D400086950C94640A8091550208950F931F93E1
:104D5000CF93DF9300D01F92CDB7DEB78C010E94B6
:104D60001A29823011F0843019F583E089831B837E
:104D70000A838093E9008FEF9091E800815095FDC0
:104D800006C095ED9A95F1F700008111F5CF80915D
:104D9000E80085FF0DC040E050E063E070E0CE0128
:104DA00001960E9437298091E8008E778093E80071
:104DB0000F900F900F90DF91CF911F910F91089559
:104DC000CF93DF9300D01F92CDB7DEB72091A90219
:104DD000243031F522E02983805891099B838A830E
:104DE00083E08093E9008FEF9091E800815095FD7A
:104DF00006C095ED9A95F1F700008111F5CF8091ED
:104E0000E80085FF0DC040E050E063E070E0CE01B7
:104E100001960E9437298091E8008E778093E80000
:104E20000F900F900F90DF91CF910895CF93DF9364
:104E3000EC010E941A29823011F08430F9F482E0EA
:104E40008093E9008FEF9091E800815095FD06C0B6
:104E500095ED9A95F1F700008111F5CF8091E8006A
:104E600085FF0CC040E050E065E070E0CE010E949C
:104E700037298091E8008E778093E800DF91CF9109
:104E80000895CF93DF93EC010E941A29823019F024
:104E9000843009F047C0809114018823E1F08091AB
:104EA000A20287FF18C084E08093E9008FEF909101
:104EB000E800815095FD06C095E19A95F1F7000054
:104EC0008111F5CF8091E80085FF2CC040E050E0D3
:104ED00060E270E017C081E08093E9008FEF90916D
:104EE000E800815095FD06C095ED9A95F1F7000018
:104EF0008111F5CF8091E80085FF14C040E050E0BB
:104F000068E070E0CE010E9437298091E8008E773A
:104F10008093E80080E2FE01A5E3B2E001900D92EB
:104F20008A95E1F7DF91CF9108958091A8028111D0
:104F300009C00E94C92A0E94262B8091E200846049
:104F40008093E20008951092A802089508950895AC
:104F50000C94BA2142E061EC81E00E94432A42E0D5
:104F600061EC82E00E94432A42E061EC83E00E940F
:104F7000432A42E261EC84E00C94432A8091AB0224
:104F8000833009F455C030F4813071F0823009F477
:104F90008EC008958A3009F47AC08B3009F460C05D
:104FA000893009F09CC020C08091AA02813A09F0A2
:104FB00096C08091E800877F8093E8008091AE02E0
:104FC0009091AF02892B21F060E080E090E003C077
:104FD00060E285E392E070E00E9480298091E80021
:104FE0008B778093E80008958091AA02813209F0BE
:104FF00076C08091AE029091AF02009719F00397AE
:1050000009F06DC08091E800877F8093E80080916F
:10501000E80082FD05C08091A9028111F8CF5FC030
:105020008091F100809355028091E8008B7753C006
:105030008091AA02813A09F052C08091AE0290910B
:10504000AF02892B09F04BC08091E800877F8093E5
:10505000E8008091E80080FFFCCF8091140136C009
:105060008091AA028132D9F58091AE029091AF026F
:10507000892BA9F58091E800877F8093E8000E9442
:10508000782A8091AC02809314010C94481A809184
:10509000AA02813221F58091E800877F8093E800A1
:1050A0000E94782A8091AD028093560208958091E3
:1050B000AA02813AA1F48091E800877F8093E800FA
:1050C0008091E80080FFFCCF809156028093F10030
:1050D0008091E8008E778093E8000C94782A0895F8
:1050E00084B7877F84BF88E10FB6F894809360000F
:1050F000109260000FBE80E8809361001092610002
:105100000E94F2140E94C92A0E94262B8091E2007C
:1051100084608093E20078940E94A92D0E94F61486
:105120008AE091E00E949E148091A902853069F482
:105130000E9477218091A7028823B1F30E94A521C4
:10514000882391F30E942129EFCF0E9400150E942D
:105150003114EACF292F332723303105A9F06CF41D
:105160002130310509F448C02230310509F049C029
:105170008DE690E026E43CE048C021323105F9F0AC
:105180002232310549F13DC099278130910571F0F6
:105190002CF4892BB1F5E2E4FCE00DC082309105DE
:1051A00041F0039771F5E6E2FCE005C0E8E3FCE0BE
:1051B00002C0ECE2FCE0849190E09F0126C06430E4
:1051C0007105F8F4FB01EE0FFF1FEB5CFE4F208131
:1051D000318189E090E019C06430710590F4FB01E1
:1051E000EE0FFF1FE35DFE4F20813181FB01E75D84
:1051F000FE4F808190E009C082E190E023EB3CE02B
:1052000004C080E090E020E030E0FA0131832083A8
:1052100008950895CF93C82F0E940929C09357027B
:10522000CF9108958091A902843011F482E008950D
:1052300081E0089580915702811102C00C941229D7
:10524000089580E189BD82E189BD09B400FEFDCFEA
:105250008091D8008F7D8093D8008091E00082609B
:105260008093E0008091E00081FDFCCF0895CF9213
:10527000DF92EF92FF920F931F93CF93DF937C0106
:105280008B01EA010E94992A811131C0209731F0E7
:1052900088819981081B190BE80EF91EC12CD12CAD
:1052A0000115110519F18091E80085FD14C0809168
:1052B000E8008E778093E800209741F088819981FB
:1052C0008C0D9D1D9983888385E011C00E94992AC9
:1052D000882331F30CC0F70181917F018093F100A5
:1052E00001501109FFEFCF1ADF0ADACF80E0DF911A
:1052F000CF911F910F91FF90EF90DF90CF90089585
:105300002091B0023091B1022617370748F061159D
:10531000710539F42091E8002E772093E80001C050
:10532000B901FC0120E061157105B9F18091A90274
:10533000882309F440C0853009F43FC08091E8001B
:1053400083FD3DC08091E80082FF06C08091E800A7
:1053500082FF26C080E008958091E80080FFE3CFBF
:105360002091F3008091F20090E0922B611571057D
:1053700051F08830910538F421912093F10061506B
:1053800071090196F3CF21E0089709F020E08091A0
:10539000E8008E778093E800C6CF2111C7CFD6CF23
:1053A0008091A902882339F0853039F08091E80096
:1053B00083FFCCCF04C082E0089583E0089581E0AC
:1053C00008952091B0023091B1022617370748F0B6
:1053D0006115710539F42091E8002E772093E800DB
:1053E00001C0B901FC0120E061157105C1F1809196
:1053F000A902882309F441C0853009F440C0809196
:10540000E80083FD3EC08091E80082FF06C08091E5
:10541000E80082FF27C080E008958091E80080FFC7
:10542000E3CF2091F3008091F20090E0922B611580
:10543000710559F08830910540F424912093F100D2
:105440003196615071090196F2CF21E0089709F079
:1054500020E08091E8008E778093E800C5CF21118D
:10546000C6CFD5CF8091A902882339F0853039F095
:105470008091E80083FFCBCF04C082E0089583E0F1
:10548000089581E00895982F973058F59093E9009A
:10549000981739F07091EC002091ED005091F000D8
:1054A00003C0242F762F50E021FF19C03091EB006C
:1054B0003E7F3093EB003091ED003D7F3093ED0067
:1054C0003091EB0031603093EB007093EC0020934F
:1054D000ED005093F0002091EE0027FF07C09F5F82
:1054E000D3CF8F708093E90081E0089580E0089524
:1054F0008091AA0287FD05C08091E80080FF0EC060
:1055000012C08091E80082FD05C08091A90281113E
:10551000F8CF08958091E8008B7708C08091A902A8
:105520008111EACF08958091E8008E778093E8009A
:1055300008958091E4009091E50045E62091EC000B
:1055400020FF21C02091E80020FD21C02091A90268
:10555000222389F0253089F02091EB0025FD0FC032
:105560002091E4003091E5002817390739F34150C4
:1055700041F0C901E3CF82E0089583E0089581E01E
:10558000089584E008952091E80022FFDFCF80E0B5
:1055900008950E94372B0E943F2BE0EEF0E08081BF
:1055A00081608083E8EDF0E080818F77808319BC93
:1055B000A7EDB0E08C918E7F8C9380818F7E80836D
:1055C0001092A80208950F931F93CF93DF930E9428
:1055D000372B0E943F2BC8EDD0E088818F778883DE
:1055E00088818068888388818F7D888319BC109228
:1055F000A9021092A5021092A7021092A60200EE34
:1056000010E0F80180818B7F8083888181608883AE
:1056100042E060E080E00E94432AE1EEF0E0808119
:105620008E7F8083E2EEF0E08081816080838081E4
:1056300088608083F80180818E7F8083888180618B
:105640008883DF91CF911F910F910895E8EDF0E0ED
:1056500080818F7E8083E7EDF0E0808181608083B0
:1056600084E082BF81E08093A8020C94E32AE8EDF5
:10567000F0E080818E7F80831092E2000895109286
:10568000DA001092E10008951F920F920FB60F9268
:1056900011242F933F934F935F936F937F938F9337
:1056A0009F93AF93BF93EF93FF938091E10082FFAD
:1056B0000BC08091E20082FF07C08091E1008B7FE8
:1056C0008093E1000E94A82D8091DA0080FF1FC026
:1056D0008091D80080FF1BC08091DA008E7F80937C
:1056E000DA008091D90080FF0DC080E189BD82E1A0
:1056F00089BD09B400FEFDCF81E08093A9020E941C
:10570000952705C019BC1092A9020E94A327809179
:10571000E10080FF19C08091E20080FF15C08091F8
:10572000E2008E7F8093E2008091E20080618093AE
:10573000E2008091D80080628093D80019BC85E097
:105740008093A9020E94A7278091E10084FF30C0C6
:105750008091E20084FF2CC080E189BD82E189BD97
:1057600009B400FEFDCF8091D8008F7D8093D800D2
:105770008091E1008F7E8093E1008091E2008F7E36
:105780008093E2008091E20081608093E20080914A
:10579000A502882311F084E007C08091E30087FF11
:1057A00002C083E001C081E08093A9020E94A82783
:1057B0008091E10083FF29C08091E20083FF25C032
:1057C0008091E100877F8093E10082E08093A902CD
:1057D0001092A5028091E1008E7F8093E10080917C
:1057E000E2008E7F8093E2008091E20080618093EE
:1057F000E20042E060E080E00E94432A8091F000F5
:1058000088608093F0000E94A627FF91EF91BF91DE
:10581000AF919F918F917F916F915F914F913F9148
:105820002F910F900FBE0F901F9018951F920F92FF
:105830000FB60F9211242F933F934F935F936F9363
:105840007F938F939F93AF93BF93CF93EF93FF93E8
:10585000C091E900CF708091EC001092E900809136
:10586000F000877F8093F00078940E94522C109271
:10587000E9008091F00088608093F000C093E90017
:10588000FF91EF91CF91BF91AF919F918F917F91B8
:105890006F915F914F913F912F910F900FBE0F909D
:1058A0001F9018951F93CF93DF93CDB7DEB7AA97BC
:1058B0000FB6F894DEBF0FBECDBFEAEAF2E08091EA
:1058C000F100819322E0E23BF207C9F70E94BE2774
:1058D0008091E80083FF24C12091AA023091AB029D
:1058E000832F90E08A30910508F01AC1FC01EE5533
:1058F000FF4F0C942E31203821F0223809F010C1CE
:1059000008C08091A6029091A702992389F0826035
:105910000FC08091AE028F70873008F001C1809374
:10592000E9008091EB0085FB882780F91092E9005F
:105930009091E800977F9093E8008093F100109297
:10594000F100CCC0822F8D7F09F0EAC0222319F02C
:10595000223061F0E5C08091AC02813009F0E0C0F6
:10596000333009F080E08093A7022AC08091AC0216
:10597000811126C02091AE022F708FEF820F8630EA
:1059800008F0CEC02093E9008091EB0080FF18C0A2
:105990008091EB00333011F4806210C080618093FD
:1059A000EB0081E090E001C0880F2A95EAF7809330
:1059B000EA001092EA008091EB0088608093EB008F
:1059C0001092E9008091E800877F8093E8000E94B0
:1059D000782AA6C02111A4C01091AC021F77809133
:1059E000E3008078812B8093E3008091E800877F3B
:1059F0008093E8000E94782A8091E80080FFFCCF25
:105A00008091E30080688093E300112311F083E02C
:105A100001C082E08093A90283C02058223008F0A0
:105A20007FC08091AC029091AD028C3D23E0920743
:105A300079F583E08A838AE289834FB7F894DE019F
:105A4000139620E03EE051E2E32FF0E05093570040
:105A5000E49120FF03C0E295EF703F5FEF708E2F5F
:105A600090E0EA3010F0C79601C0C0968D939D93E8
:105A70002F5F243149F74FBF8091E800877F8093E3
:105A8000E8006AE270E0CE0101960E94802915C00C
:105A90006091AE027091AF02AE014F5F5F4F0E9406
:105AA000AA280097E9F12091E800277F2093E800D9
:105AB000BC0189819A810E94E1298091E8008B775D
:105AC0008093E8002DC0203859F58091E800877F49
:105AD0008093E8008091A5028093F1008091E80016
